{
  "_format": "hh-sol-artifact-1",
  "contractName": "testERC721NFT",
  "sourceName": "contracts/testERC20NFT.sol",
  "abi": [
    {
      "inputs": [],
      "stateMutability": "nonpayable",
      "type": "constructor"
    },
    {
      "anonymous": false,
      "inputs": [
        {
          "indexed": true,
          "internalType": "address",
          "name": "owner",
          "type": "address"
        },
        {
          "indexed": true,
          "internalType": "address",
          "name": "approved",
          "type": "address"
        },
        {
          "indexed": true,
          "internalType": "uint256",
          "name": "tokenId",
          "type": "uint256"
        }
      ],
      "name": "Approval",
      "type": "event"
    },
    {
      "anonymous": false,
      "inputs": [
        {
          "indexed": true,
          "internalType": "address",
          "name": "owner",
          "type": "address"
        },
        {
          "indexed": true,
          "internalType": "address",
          "name": "operator",
          "type": "address"
        },
        {
          "indexed": false,
          "internalType": "bool",
          "name": "approved",
          "type": "bool"
        }
      ],
      "name": "ApprovalForAll",
      "type": "event"
    },
    {
      "anonymous": false,
      "inputs": [
        {
          "indexed": true,
          "internalType": "address",
          "name": "previousOwner",
          "type": "address"
        },
        {
          "indexed": true,
          "internalType": "address",
          "name": "newOwner",
          "type": "address"
        }
      ],
      "name": "OwnershipTransferred",
      "type": "event"
    },
    {
      "anonymous": false,
      "inputs": [
        {
          "indexed": true,
          "internalType": "address",
          "name": "from",
          "type": "address"
        },
        {
          "indexed": true,
          "internalType": "address",
          "name": "to",
          "type": "address"
        },
        {
          "indexed": true,
          "internalType": "uint256",
          "name": "tokenId",
          "type": "uint256"
        }
      ],
      "name": "Transfer",
      "type": "event"
    },
    {
      "inputs": [
        {
          "internalType": "address",
          "name": "to",
          "type": "address"
        },
        {
          "internalType": "uint256",
          "name": "tokenId",
          "type": "uint256"
        }
      ],
      "name": "approve",
      "outputs": [],
      "stateMutability": "nonpayable",
      "type": "function"
    },
    {
      "inputs": [
        {
          "internalType": "address",
          "name": "owner",
          "type": "address"
        }
      ],
      "name": "balanceOf",
      "outputs": [
        {
          "internalType": "uint256",
          "name": "",
          "type": "uint256"
        }
      ],
      "stateMutability": "view",
      "type": "function"
    },
    {
      "inputs": [],
      "name": "contractURI",
      "outputs": [
        {
          "internalType": "string",
          "name": "",
          "type": "string"
        }
      ],
      "stateMutability": "view",
      "type": "function"
    },
    {
      "inputs": [
        {
          "internalType": "uint256",
          "name": "tokenId",
          "type": "uint256"
        }
      ],
      "name": "getApproved",
      "outputs": [
        {
          "internalType": "address",
          "name": "",
          "type": "address"
        }
      ],
      "stateMutability": "view",
      "type": "function"
    },
    {
      "inputs": [
        {
          "internalType": "address",
          "name": "owner",
          "type": "address"
        },
        {
          "internalType": "address",
          "name": "operator",
          "type": "address"
        }
      ],
      "name": "isApprovedForAll",
      "outputs": [
        {
          "internalType": "bool",
          "name": "",
          "type": "bool"
        }
      ],
      "stateMutability": "view",
      "type": "function"
    },
    {
      "inputs": [],
      "name": "mintNFT",
      "outputs": [],
      "stateMutability": "payable",
      "type": "function"
    },
    {
      "inputs": [],
      "name": "name",
      "outputs": [
        {
          "internalType": "string",
          "name": "",
          "type": "string"
        }
      ],
      "stateMutability": "view",
      "type": "function"
    },
    {
      "inputs": [],
      "name": "owner",
      "outputs": [
        {
          "internalType": "address",
          "name": "",
          "type": "address"
        }
      ],
      "stateMutability": "view",
      "type": "function"
    },
    {
      "inputs": [
        {
          "internalType": "uint256",
          "name": "tokenId",
          "type": "uint256"
        }
      ],
      "name": "ownerOf",
      "outputs": [
        {
          "internalType": "address",
          "name": "",
          "type": "address"
        }
      ],
      "stateMutability": "view",
      "type": "function"
    },
    {
      "inputs": [],
      "name": "renounceOwnership",
      "outputs": [],
      "stateMutability": "nonpayable",
      "type": "function"
    },
    {
      "inputs": [
        {
          "internalType": "address",
          "name": "from",
          "type": "address"
        },
        {
          "internalType": "address",
          "name": "to",
          "type": "address"
        },
        {
          "internalType": "uint256",
          "name": "tokenId",
          "type": "uint256"
        }
      ],
      "name": "safeTransferFrom",
      "outputs": [],
      "stateMutability": "nonpayable",
      "type": "function"
    },
    {
      "inputs": [
        {
          "internalType": "address",
          "name": "from",
          "type": "address"
        },
        {
          "internalType": "address",
          "name": "to",
          "type": "address"
        },
        {
          "internalType": "uint256",
          "name": "tokenId",
          "type": "uint256"
        },
        {
          "internalType": "bytes",
          "name": "_data",
          "type": "bytes"
        }
      ],
      "name": "safeTransferFrom",
      "outputs": [],
      "stateMutability": "nonpayable",
      "type": "function"
    },
    {
      "inputs": [
        {
          "internalType": "address",
          "name": "operator",
          "type": "address"
        },
        {
          "internalType": "bool",
          "name": "approved",
          "type": "bool"
        }
      ],
      "name": "setApprovalForAll",
      "outputs": [],
      "stateMutability": "nonpayable",
      "type": "function"
    },
    {
      "inputs": [
        {
          "internalType": "bytes4",
          "name": "interfaceId",
          "type": "bytes4"
        }
      ],
      "name": "supportsInterface",
      "outputs": [
        {
          "internalType": "bool",
          "name": "",
          "type": "bool"
        }
      ],
      "stateMutability": "view",
      "type": "function"
    },
    {
      "inputs": [],
      "name": "symbol",
      "outputs": [
        {
          "internalType": "string",
          "name": "",
          "type": "string"
        }
      ],
      "stateMutability": "view",
      "type": "function"
    },
    {
      "inputs": [
        {
          "internalType": "uint256",
          "name": "tokenId",
          "type": "uint256"
        }
      ],
      "name": "tokenURI",
      "outputs": [
        {
          "internalType": "string",
          "name": "",
          "type": "string"
        }
      ],
      "stateMutability": "view",
      "type": "function"
    },
    {
      "inputs": [
        {
          "internalType": "address",
          "name": "from",
          "type": "address"
        },
        {
          "internalType": "address",
          "name": "to",
          "type": "address"
        },
        {
          "internalType": "uint256",
          "name": "tokenId",
          "type": "uint256"
        }
      ],
      "name": "transferFrom",
      "outputs": [],
      "stateMutability": "nonpayable",
      "type": "function"
    },
    {
      "inputs": [
        {
          "internalType": "address",
          "name": "newOwner",
          "type": "address"
        }
      ],
      "name": "transferOwnership",
      "outputs": [],
      "stateMutability": "nonpayable",
      "type": "function"
    },
    {
      "inputs": [],
      "name": "withdraw",
      "outputs": [],
      "stateMutability": "nonpayable",
      "type": "function"
    }
  ],
  "bytecode": "0x60806040523480156200001157600080fd5b506040518060400160405280600781526020017f746573744e4654000000000000000000000000000000000000000000000000008152506040518060400160405280600281526020017f544e00000000000000000000000000000000000000000000000000000000000081525081600090805190602001906200009692919062000238565b508060019080519060200190620000af92919062000238565b505050620000d2620000c66200016a60201b60201c565b6200017260201b60201c565b600660078190555067016345785d8a000060088190555033600960006101000a81548173ffffffffffffffffffffffffffffffffffffffff021916908373ffffffffffffffffffffffffffffffffffffffff1602179055506001600a81905550604051806080016040528060518152602001620031db60519139600b90805190602001906200016392919062000238565b506200034d565b600033905090565b6000600660009054906101000a900473ffffffffffffffffffffffffffffffffffffffff16905081600660006101000a81548173ffffffffffffffffffffffffffffffffffffffff021916908373ffffffffffffffffffffffffffffffffffffffff1602179055508173ffffffffffffffffffffffffffffffffffffffff168173ffffffffffffffffffffffffffffffffffffffff167f8be0079c531659141344cd1fd0a4f28419497f9722a3daafe3b4186f6b6457e060405160405180910390a35050565b8280546200024690620002e8565b90600052602060002090601f0160209004810192826200026a5760008555620002b6565b82601f106200028557805160ff1916838001178555620002b6565b82800160010185558215620002b6579182015b82811115620002b557825182559160200191906001019062000298565b5b509050620002c59190620002c9565b5090565b5b80821115620002e4576000816000905550600101620002ca565b5090565b600060028204905060018216806200030157607f821691505b602082108114156200031857620003176200031e565b5b50919050565b7f4e487b7100000000000000000000000000000000000000000000000000000000600052602260045260246000fd5b612e7e806200035d6000396000f3fe6080604052600436106101145760003560e01c806370a08231116100a0578063b88d4fde11610064578063b88d4fde1461036a578063c87b56dd14610393578063e8a3d485146103d0578063e985e9c5146103fb578063f2fde38b1461043857610114565b806370a0823114610297578063715018a6146102d45780638da5cb5b146102eb57806395d89b4114610316578063a22cb4651461034157610114565b806314f710fe116100e757806314f710fe146101e757806323b872dd146101f15780633ccfd60b1461021a57806342842e0e146102315780636352211e1461025a57610114565b806301ffc9a71461011957806306fdde0314610156578063081812fc14610181578063095ea7b3146101be575b600080fd5b34801561012557600080fd5b50610140600480360381019061013b9190611f22565b610461565b60405161014d9190612796565b60405180910390f35b34801561016257600080fd5b5061016b610543565b60405161017891906127b1565b60405180910390f35b34801561018d57600080fd5b506101a860048036038101906101a39190611f74565b6105d5565b6040516101b5919061272f565b60405180910390f35b3480156101ca57600080fd5b506101e560048036038101906101e09190611ee6565b61065a565b005b6101ef610772565b005b3480156101fd57600080fd5b5061021860048036038101906102139190611de0565b6107ed565b005b34801561022657600080fd5b5061022f61084d565b005b34801561023d57600080fd5b5061025860048036038101906102539190611de0565b610934565b005b34801561026657600080fd5b50610281600480360381019061027c9190611f74565b610954565b60405161028e919061272f565b60405180910390f35b3480156102a357600080fd5b506102be60048036038101906102b99190611d7b565b610a06565b6040516102cb91906129f3565b60405180910390f35b3480156102e057600080fd5b506102e9610abe565b005b3480156102f757600080fd5b50610300610b46565b60405161030d919061272f565b60405180910390f35b34801561032257600080fd5b5061032b610b70565b60405161033891906127b1565b60405180910390f35b34801561034d57600080fd5b5061036860048036038101906103639190611eaa565b610c02565b005b34801561037657600080fd5b50610391600480360381019061038c9190611e2f565b610c18565b005b34801561039f57600080fd5b506103ba60048036038101906103b59190611f74565b610c7a565b6040516103c791906127b1565b60405180910390f35b3480156103dc57600080fd5b506103e5610d21565b6040516103f291906127b1565b60405180910390f35b34801561040757600080fd5b50610422600480360381019061041d9190611da4565b610d41565b60405161042f9190612796565b60405180910390f35b34801561044457600080fd5b5061045f600480360381019061045a9190611d7b565b610dd5565b005b60007f80ac58cd000000000000000000000000000000000000000000000000000000007bffffffffffffffffffffffffffffffffffffffffffffffffffffffff1916827bffffffffffffffffffffffffffffffffffffffffffffffffffffffff1916148061052c57507f5b5e139f000000000000000000000000000000000000000000000000000000007bffffffffffffffffffffffffffffffffffffffffffffffffffffffff1916827bffffffffffffffffffffffffffffffffffffffffffffffffffffffff1916145b8061053c575061053b82610ecd565b5b9050919050565b60606000805461055290612c23565b80601f016020809104026020016040519081016040528092919081815260200182805461057e90612c23565b80156105cb5780601f106105a0576101008083540402835291602001916105cb565b820191906000526020600020905b8154815290600101906020018083116105ae57829003601f168201915b5050505050905090565b60006105e082610f37565b61061f576040517f08c379a000000000000000000000000000000000000000000000000000000000815260040161061690612953565b60405180910390fd5b6004600083815260200190815260200160002060009054906101000a900473ffffffffffffffffffffffffffffffffffffffff169050919050565b600061066582610954565b90508073ffffffffffffffffffffffffffffffffffffffff168373ffffffffffffffffffffffffffffffffffffffff1614156106d6576040517f08c379a00000000000000000000000000000000000000000000000000000000081526004016106cd906129b3565b60405180910390fd5b8073ffffffffffffffffffffffffffffffffffffffff166106f5610fa3565b73ffffffffffffffffffffffffffffffffffffffff16148061072457506107238161071e610fa3565b610d41565b5b610763576040517f08c379a000000000000000000000000000000000000000000000000000000000815260040161075a906128d3565b60405180910390fd5b61076d8383610fab565b505050565b60085434146107b6576040517f08c379a00000000000000000000000000000000000000000000000000000000081526004016107ad90612893565b60405180910390fd5b600754600a5411156107c757600080fd5b6107d333600a54611064565b600a60008154809291906107e690612c55565b9190505550565b6107fe6107f8610fa3565b82611082565b61083d576040517f08c379a0000000000000000000000000000000000000000000000000000000008152600401610834906129d3565b60405180910390fd5b610848838383611160565b505050565b610855610fa3565b73ffffffffffffffffffffffffffffffffffffffff16610873610b46565b73ffffffffffffffffffffffffffffffffffffffff16146108c9576040517f08c379a00000000000000000000000000000000000000000000000000000000081526004016108c090612973565b60405180910390fd5b600960009054906101000a900473ffffffffffffffffffffffffffffffffffffffff1673ffffffffffffffffffffffffffffffffffffffff166108fc479081150290604051600060405180830381858888f19350505050158015610931573d6000803e3d6000fd5b50565b61094f83838360405180602001604052806000815250610c18565b505050565b6000806002600084815260200190815260200160002060009054906101000a900473ffffffffffffffffffffffffffffffffffffffff169050600073ffffffffffffffffffffffffffffffffffffffff168173ffffffffffffffffffffffffffffffffffffffff1614156109fd576040517f08c379a00000000000000000000000000000000000000000000000000000000081526004016109f490612913565b60405180910390fd5b80915050919050565b60008073ffffffffffffffffffffffffffffffffffffffff168273ffffffffffffffffffffffffffffffffffffffff161415610a77576040517f08c379a0000000000000000000000000000000000000000000000000000000008152600401610a6e906128f3565b60405180910390fd5b600360008373ffffffffffffffffffffffffffffffffffffffff1673ffffffffffffffffffffffffffffffffffffffff168152602001908152602001600020549050919050565b610ac6610fa3565b73ffffffffffffffffffffffffffffffffffffffff16610ae4610b46565b73ffffffffffffffffffffffffffffffffffffffff1614610b3a576040517f08c379a0000000000000000000000000000000000000000000000000000000008152600401610b3190612973565b60405180910390fd5b610b4460006113c7565b565b6000600660009054906101000a900473ffffffffffffffffffffffffffffffffffffffff16905090565b606060018054610b7f90612c23565b80601f0160208091040260200160405190810160405280929190818152602001828054610bab90612c23565b8015610bf85780601f10610bcd57610100808354040283529160200191610bf8565b820191906000526020600020905b815481529060010190602001808311610bdb57829003601f168201915b5050505050905090565b610c14610c0d610fa3565b838361148d565b5050565b610c29610c23610fa3565b83611082565b610c68576040517f08c379a0000000000000000000000000000000000000000000000000000000008152600401610c5f906129d3565b60405180910390fd5b610c74848484846115fa565b50505050565b6060610c8582610f37565b610cc4576040517f08c379a0000000000000000000000000000000000000000000000000000000008152600401610cbb90612993565b60405180910390fd5b6000610cce611656565b90506000815111610cee5760405180602001604052806000815250610d19565b80610cf8846116e8565b604051602001610d099291906126f5565b6040516020818303038152906040525b915050919050565b6060604051806080016040528060508152602001612df960509139905090565b6000600560008473ffffffffffffffffffffffffffffffffffffffff1673ffffffffffffffffffffffffffffffffffffffff16815260200190815260200160002060008373ffffffffffffffffffffffffffffffffffffffff1673ffffffffffffffffffffffffffffffffffffffff16815260200190815260200160002060009054906101000a900460ff16905092915050565b610ddd610fa3565b73ffffffffffffffffffffffffffffffffffffffff16610dfb610b46565b73ffffffffffffffffffffffffffffffffffffffff1614610e51576040517f08c379a0000000000000000000000000000000000000000000000000000000008152600401610e4890612973565b60405180910390fd5b600073ffffffffffffffffffffffffffffffffffffffff168173ffffffffffffffffffffffffffffffffffffffff161415610ec1576040517f08c379a0000000000000000000000000000000000000000000000000000000008152600401610eb8906127f3565b60405180910390fd5b610eca816113c7565b50565b60007f01ffc9a7000000000000000000000000000000000000000000000000000000007bffffffffffffffffffffffffffffffffffffffffffffffffffffffff1916827bffffffffffffffffffffffffffffffffffffffffffffffffffffffff1916149050919050565b60008073ffffffffffffffffffffffffffffffffffffffff166002600084815260200190815260200160002060009054906101000a900473ffffffffffffffffffffffffffffffffffffffff1673ffffffffffffffffffffffffffffffffffffffff1614159050919050565b600033905090565b816004600083815260200190815260200160002060006101000a81548173ffffffffffffffffffffffffffffffffffffffff021916908373ffffffffffffffffffffffffffffffffffffffff160217905550808273ffffffffffffffffffffffffffffffffffffffff1661101e83610954565b73ffffffffffffffffffffffffffffffffffffffff167f8c5be1e5ebec7d5bd14f71427d1e84f3dd0314c0f7b2291e5b200ac8c7c3b92560405160405180910390a45050565b61107e828260405180602001604052806000815250611895565b5050565b600061108d82610f37565b6110cc576040517f08c379a00000000000000000000000000000000000000000000000000000000081526004016110c3906128b3565b60405180910390fd5b60006110d783610954565b90508073ffffffffffffffffffffffffffffffffffffffff168473ffffffffffffffffffffffffffffffffffffffff16148061114657508373ffffffffffffffffffffffffffffffffffffffff1661112e846105d5565b73ffffffffffffffffffffffffffffffffffffffff16145b8061115757506111568185610d41565b5b91505092915050565b8273ffffffffffffffffffffffffffffffffffffffff1661118082610954565b73ffffffffffffffffffffffffffffffffffffffff16146111d6576040517f08c379a00000000000000000000000000000000000000000000000000000000081526004016111cd90612813565b60405180910390fd5b600073ffffffffffffffffffffffffffffffffffffffff168273ffffffffffffffffffffffffffffffffffffffff161415611246576040517f08c379a000000000000000000000000000000000000000000000000000000000815260040161123d90612853565b60405180910390fd5b6112518383836118f0565b61125c600082610fab565b6001600360008573ffffffffffffffffffffffffffffffffffffffff1673ffffffffffffffffffffffffffffffffffffffff16815260200190815260200160002060008282546112ac9190612b39565b925050819055506001600360008473ffffffffffffffffffffffffffffffffffffffff1673ffffffffffffffffffffffffffffffffffffffff16815260200190815260200160002060008282546113039190612ab2565b92505081905550816002600083815260200190815260200160002060006101000a81548173ffffffffffffffffffffffffffffffffffffffff021916908373ffffffffffffffffffffffffffffffffffffffff160217905550808273ffffffffffffffffffffffffffffffffffffffff168473ffffffffffffffffffffffffffffffffffffffff167fddf252ad1be2c89b69c2b068fc378daa952ba7f163c4a11628f55a4df523b3ef60405160405180910390a46113c28383836118f5565b505050565b6000600660009054906101000a900473ffffffffffffffffffffffffffffffffffffffff16905081600660006101000a81548173ffffffffffffffffffffffffffffffffffffffff021916908373ffffffffffffffffffffffffffffffffffffffff1602179055508173ffffffffffffffffffffffffffffffffffffffff168173ffffffffffffffffffffffffffffffffffffffff167f8be0079c531659141344cd1fd0a4f28419497f9722a3daafe3b4186f6b6457e060405160405180910390a35050565b8173ffffffffffffffffffffffffffffffffffffffff168373ffffffffffffffffffffffffffffffffffffffff1614156114fc576040517f08c379a00000000000000000000000000000000000000000000000000000000081526004016114f390612873565b60405180910390fd5b80600560008573ffffffffffffffffffffffffffffffffffffffff1673ffffffffffffffffffffffffffffffffffffffff16815260200190815260200160002060008473ffffffffffffffffffffffffffffffffffffffff1673ffffffffffffffffffffffffffffffffffffffff16815260200190815260200160002060006101000a81548160ff0219169083151502179055508173ffffffffffffffffffffffffffffffffffffffff168373ffffffffffffffffffffffffffffffffffffffff167f17307eab39ab6107e8899845ad3d59bd9653f200f220920489ca2b5937696c31836040516115ed9190612796565b60405180910390a3505050565b611605848484611160565b611611848484846118fa565b611650576040517f08c379a0000000000000000000000000000000000000000000000000000000008152600401611647906127d3565b60405180910390fd5b50505050565b6060600b805461166590612c23565b80601f016020809104026020016040519081016040528092919081815260200182805461169190612c23565b80156116de5780601f106116b3576101008083540402835291602001916116de565b820191906000526020600020905b8154815290600101906020018083116116c157829003601f168201915b5050505050905090565b60606000821415611730576040518060400160405280600181526020017f30000000000000000000000000000000000000000000000000000000000000008152509050611890565b600082905060005b6000821461176257808061174b90612c55565b915050600a8261175b9190612b08565b9150611738565b60008167ffffffffffffffff8111156117a4577f4e487b7100000000000000000000000000000000000000000000000000000000600052604160045260246000fd5b6040519080825280601f01601f1916602001820160405280156117d65781602001600182028036833780820191505090505b5090505b60008514611889576001826117ef9190612b39565b9150600a856117fe9190612c9e565b603061180a9190612ab2565b60f81b818381518110611846577f4e487b7100000000000000000000000000000000000000000000000000000000600052603260045260246000fd5b60200101907effffffffffffffffffffffffffffffffffffffffffffffffffffffffffffff1916908160001a905350600a856118829190612b08565b94506117da565b8093505050505b919050565b61189f8383611a91565b6118ac60008484846118fa565b6118eb576040517f08c379a00000000000000000000000000000000000000000000000000000000081526004016118e2906127d3565b60405180910390fd5b505050565b505050565b505050565b600061191b8473ffffffffffffffffffffffffffffffffffffffff16611c6b565b15611a84578373ffffffffffffffffffffffffffffffffffffffff1663150b7a02611944610fa3565b8786866040518563ffffffff1660e01b8152600401611966949392919061274a565b602060405180830381600087803b15801561198057600080fd5b505af19250505080156119b157506040513d601f19601f820116820180604052508101906119ae9190611f4b565b60015b611a34573d80600081146119e1576040519150601f19603f3d011682016040523d82523d6000602084013e6119e6565b606091505b50600081511415611a2c576040517f08c379a0000000000000000000000000000000000000000000000000000000008152600401611a23906127d3565b60405180910390fd5b805181602001fd5b63150b7a0260e01b7bffffffffffffffffffffffffffffffffffffffffffffffffffffffff1916817bffffffffffffffffffffffffffffffffffffffffffffffffffffffff191614915050611a89565b600190505b949350505050565b600073ffffffffffffffffffffffffffffffffffffffff168273ffffffffffffffffffffffffffffffffffffffff161415611b01576040517f08c379a0000000000000000000000000000000000000000000000000000000008152600401611af890612933565b60405180910390fd5b611b0a81610f37565b15611b4a576040517f08c379a0000000000000000000000000000000000000000000000000000000008152600401611b4190612833565b60405180910390fd5b611b56600083836118f0565b6001600360008473ffffffffffffffffffffffffffffffffffffffff1673ffffffffffffffffffffffffffffffffffffffff1681526020019081526020016000206000828254611ba69190612ab2565b92505081905550816002600083815260200190815260200160002060006101000a81548173ffffffffffffffffffffffffffffffffffffffff021916908373ffffffffffffffffffffffffffffffffffffffff160217905550808273ffffffffffffffffffffffffffffffffffffffff16600073ffffffffffffffffffffffffffffffffffffffff167fddf252ad1be2c89b69c2b068fc378daa952ba7f163c4a11628f55a4df523b3ef60405160405180910390a4611c67600083836118f5565b5050565b6000808273ffffffffffffffffffffffffffffffffffffffff16803b806020016040519081016040528181526000908060200190933c51119050919050565b6000611cbd611cb884612a3f565b612a0e565b905082815260208101848484011115611cd557600080fd5b611ce0848285612be1565b509392505050565b600081359050611cf781612d9c565b92915050565b600081359050611d0c81612db3565b92915050565b600081359050611d2181612dca565b92915050565b600081519050611d3681612dca565b92915050565b600082601f830112611d4d57600080fd5b8135611d5d848260208601611caa565b91505092915050565b600081359050611d7581612de1565b92915050565b600060208284031215611d8d57600080fd5b6000611d9b84828501611ce8565b91505092915050565b60008060408385031215611db757600080fd5b6000611dc585828601611ce8565b9250506020611dd685828601611ce8565b9150509250929050565b600080600060608486031215611df557600080fd5b6000611e0386828701611ce8565b9350506020611e1486828701611ce8565b9250506040611e2586828701611d66565b9150509250925092565b60008060008060808587031215611e4557600080fd5b6000611e5387828801611ce8565b9450506020611e6487828801611ce8565b9350506040611e7587828801611d66565b925050606085013567ffffffffffffffff811115611e9257600080fd5b611e9e87828801611d3c565b91505092959194509250565b60008060408385031215611ebd57600080fd5b6000611ecb85828601611ce8565b9250506020611edc85828601611cfd565b9150509250929050565b60008060408385031215611ef957600080fd5b6000611f0785828601611ce8565b9250506020611f1885828601611d66565b9150509250929050565b600060208284031215611f3457600080fd5b6000611f4284828501611d12565b91505092915050565b600060208284031215611f5d57600080fd5b6000611f6b84828501611d27565b91505092915050565b600060208284031215611f8657600080fd5b6000611f9484828501611d66565b91505092915050565b611fa681612b6d565b82525050565b611fb581612b7f565b82525050565b6000611fc682612a6f565b611fd08185612a85565b9350611fe0818560208601612bf0565b611fe981612d8b565b840191505092915050565b6000611fff82612a7a565b6120098185612a96565b9350612019818560208601612bf0565b61202281612d8b565b840191505092915050565b600061203882612a7a565b6120428185612aa7565b9350612052818560208601612bf0565b80840191505092915050565b600061206b603283612a96565b91507f4552433732313a207472616e7366657220746f206e6f6e20455243373231526560008301527f63656976657220696d706c656d656e74657200000000000000000000000000006020830152604082019050919050565b60006120d1602683612a96565b91507f4f776e61626c653a206e6577206f776e657220697320746865207a65726f206160008301527f64647265737300000000000000000000000000000000000000000000000000006020830152604082019050919050565b6000612137602583612a96565b91507f4552433732313a207472616e736665722066726f6d20696e636f72726563742060008301527f6f776e65720000000000000000000000000000000000000000000000000000006020830152604082019050919050565b600061219d601c83612a96565b91507f4552433732313a20746f6b656e20616c7265616479206d696e746564000000006000830152602082019050919050565b60006121dd602483612a96565b91507f4552433732313a207472616e7366657220746f20746865207a65726f2061646460008301527f72657373000000000000000000000000000000000000000000000000000000006020830152604082019050919050565b6000612243601983612a96565b91507f4552433732313a20617070726f766520746f2063616c6c6572000000000000006000830152602082019050919050565b6000612283601483612a96565b91507f74686520707269636520697320302e31204554480000000000000000000000006000830152602082019050919050565b60006122c3600483612aa7565b91507f62757479000000000000000000000000000000000000000000000000000000006000830152600482019050919050565b6000612303602c83612a96565b91507f4552433732313a206f70657261746f7220717565727920666f72206e6f6e657860008301527f697374656e7420746f6b656e00000000000000000000000000000000000000006020830152604082019050919050565b6000612369603883612a96565b91507f4552433732313a20617070726f76652063616c6c6572206973206e6f74206f7760008301527f6e6572206e6f7220617070726f76656420666f7220616c6c00000000000000006020830152604082019050919050565b60006123cf602a83612a96565b91507f4552433732313a2062616c616e636520717565727920666f7220746865207a6560008301527f726f2061646472657373000000000000000000000000000000000000000000006020830152604082019050919050565b6000612435602983612a96565b91507f4552433732313a206f776e657220717565727920666f72206e6f6e657869737460008301527f656e7420746f6b656e00000000000000000000000000000000000000000000006020830152604082019050919050565b600061249b602083612a96565b91507f4552433732313a206d696e7420746f20746865207a65726f20616464726573736000830152602082019050919050565b60006124db602c83612a96565b91507f4552433732313a20617070726f76656420717565727920666f72206e6f6e657860008301527f697374656e7420746f6b656e00000000000000000000000000000000000000006020830152604082019050919050565b6000612541600583612aa7565b91507f2e6a736f6e0000000000000000000000000000000000000000000000000000006000830152600582019050919050565b6000612581602083612a96565b91507f4f776e61626c653a2063616c6c6572206973206e6f7420746865206f776e65726000830152602082019050919050565b60006125c1602f83612a96565b91507f4552433732314d657461646174613a2055524920717565727920666f72206e6f60008301527f6e6578697374656e7420746f6b656e00000000000000000000000000000000006020830152604082019050919050565b6000612627602183612a96565b91507f4552433732313a20617070726f76616c20746f2063757272656e74206f776e6560008301527f72000000000000000000000000000000000000000000000000000000000000006020830152604082019050919050565b600061268d603183612a96565b91507f4552433732313a207472616e736665722063616c6c6572206973206e6f74206f60008301527f776e6572206e6f7220617070726f7665640000000000000000000000000000006020830152604082019050919050565b6126ef81612bd7565b82525050565b6000612701828561202d565b915061270c826122b6565b9150612718828461202d565b915061272382612534565b91508190509392505050565b60006020820190506127446000830184611f9d565b92915050565b600060808201905061275f6000830187611f9d565b61276c6020830186611f9d565b61277960408301856126e6565b818103606083015261278b8184611fbb565b905095945050505050565b60006020820190506127ab6000830184611fac565b92915050565b600060208201905081810360008301526127cb8184611ff4565b905092915050565b600060208201905081810360008301526127ec8161205e565b9050919050565b6000602082019050818103600083015261280c816120c4565b9050919050565b6000602082019050818103600083015261282c8161212a565b9050919050565b6000602082019050818103600083015261284c81612190565b9050919050565b6000602082019050818103600083015261286c816121d0565b9050919050565b6000602082019050818103600083015261288c81612236565b9050919050565b600060208201905081810360008301526128ac81612276565b9050919050565b600060208201905081810360008301526128cc816122f6565b9050919050565b600060208201905081810360008301526128ec8161235c565b9050919050565b6000602082019050818103600083015261290c816123c2565b9050919050565b6000602082019050818103600083015261292c81612428565b9050919050565b6000602082019050818103600083015261294c8161248e565b9050919050565b6000602082019050818103600083015261296c816124ce565b9050919050565b6000602082019050818103600083015261298c81612574565b9050919050565b600060208201905081810360008301526129ac816125b4565b9050919050565b600060208201905081810360008301526129cc8161261a565b9050919050565b600060208201905081810360008301526129ec81612680565b9050919050565b6000602082019050612a0860008301846126e6565b92915050565b6000604051905081810181811067ffffffffffffffff82111715612a3557612a34612d5c565b5b8060405250919050565b600067ffffffffffffffff821115612a5a57612a59612d5c565b5b601f19601f8301169050602081019050919050565b600081519050919050565b600081519050919050565b600082825260208201905092915050565b600082825260208201905092915050565b600081905092915050565b6000612abd82612bd7565b9150612ac883612bd7565b9250827fffffffffffffffffffffffffffffffffffffffffffffffffffffffffffffffff03821115612afd57612afc612ccf565b5b828201905092915050565b6000612b1382612bd7565b9150612b1e83612bd7565b925082612b2e57612b2d612cfe565b5b828204905092915050565b6000612b4482612bd7565b9150612b4f83612bd7565b925082821015612b6257612b61612ccf565b5b828203905092915050565b6000612b7882612bb7565b9050919050565b60008115159050919050565b60007fffffffff0000000000000000000000000000000000000000000000000000000082169050919050565b600073ffffffffffffffffffffffffffffffffffffffff82169050919050565b6000819050919050565b82818337600083830152505050565b60005b83811015612c0e578082015181840152602081019050612bf3565b83811115612c1d576000848401525b50505050565b60006002820490506001821680612c3b57607f821691505b60208210811415612c4f57612c4e612d2d565b5b50919050565b6000612c6082612bd7565b91507fffffffffffffffffffffffffffffffffffffffffffffffffffffffffffffffff821415612c9357612c92612ccf565b5b600182019050919050565b6000612ca982612bd7565b9150612cb483612bd7565b925082612cc457612cc3612cfe565b5b828206905092915050565b7f4e487b7100000000000000000000000000000000000000000000000000000000600052601160045260246000fd5b7f4e487b7100000000000000000000000000000000000000000000000000000000600052601260045260246000fd5b7f4e487b7100000000000000000000000000000000000000000000000000000000600052602260045260246000fd5b7f4e487b7100000000000000000000000000000000000000000000000000000000600052604160045260246000fd5b6000601f19601f8301169050919050565b612da581612b6d565b8114612db057600080fd5b50565b612dbc81612b7f565b8114612dc757600080fd5b50565b612dd381612b8b565b8114612dde57600080fd5b50565b612dea81612bd7565b8114612df557600080fd5b5056fe68747470733a2f2f676174657761792e70696e6174612e636c6f75642f697066732f516d5a77647843416f4d646f396452456935685a516562525354764470593766757857554e415a6f597167564a68a2646970667358221220ea10fa50caaede7bdc455405a4370aed160a243dcfb9e4812edc9da625a747c664736f6c6343000800003368747470733a2f2f676174657761792e70696e6174612e636c6f75642f697066732f516d654c78616f714d456647387141784d667a4c71357574524157764d59326451444a7363465a4c5366463472652f",
  "linkReferences": {},
  "deployedLinkReferences": {}
}